:020000040800F2
:10000000D80F0020855500089302000895020008CB
:10001000990200089D020008A102000800000000EB
:10002000000000000000000000000000A502000821
:10003000A702000800000000A9020008AB020008A7
:100040009F5500089F5500089F5500089F550008C0
:100050009F5500089F5500089F5500089F550008B0
:100060009F5500089F5500089F5500089F550008A0
:100070009F5500089F5500089F5500089F55000890
:100080009F5500089F5500089F5500089F55000880
:100090009F5500089F5500089F5500089F55000870
:1000A0009F5500081F080008B18000088F0800084D
:1000B0009F5500089F5500089F5500089F55000850
:1000C0009F5500089F5500089F5500089F55000840
:1000D0009F550008495500089F5500083BAF000890
:1000E0009F5500089F5500089F550008D5810008BE
:1000F0009F5500089F550008A98200089F550008D9
:100100009F5500089F5500089F5500089F550008FF
:100110009F5500089F5500081F0700089F550008BD
:100120009F5500089F5500089F5500089F550008DF
:100130009F5500089F5500089F5500089F550008CF
:100140009F5500089F5500089F5500089F550008BF
:100150009F5500089F5500089F5500089F550008AF
:100160009F5500089F5500089F5500089F5500089F
:100170009F5500089F5500089F5500089F5500088F
:100180009F5500089F55000800F002F800F072F833
:100190000AA090E8000C82448344AAF10107DA45E2
:1001A00001D100F067F8AFF2090EBAE80F0013F0C2
:1001B000010F18BFFB1A43F001031847B0160100E6
:1001C000D01601000A444FF0000C10F8013B13F068
:1001D000070408BF10F8014B1D1108BF10F8015BA0
:1001E000641E05D010F8016B641E01F8016BF9D193
:1001F00013F0080F1EBF10F8014BAD1C0C1B09D1EA
:100200006D1E58BF01F801CBFAD505E014F8016B5B
:1002100001F8016B6D1EF9D59142D6D370470000ED
:100220000023002400250026103A28BF78C1FBD8FF
:10023000520728BF30C148BF0B60704766290EF0D7
:100240000A8064290BF00E8278290BF0478263291B
:100250000BF09186002070471FB50DF0F2FF0BF0F8
:10026000CBFE0400002000210DF060F9E0601FBD0E
:1002700010B510BD0BF0E0FF1146FFF7EDFF00F0E9
:100280001DF90BF0FEFF03B4FFF7F2FF03BC05F00E
:10029000FBF8704700BFFEE700BFFEE700BFFEE7C8
:1002A00000BFFEE770477047704770470CB50020ED
:1002B000019000907648006840F4803074490860EE
:1002C00000BF7348006800F4003000900198401CA3
:1002D0000190009818B90198B0F5A04FF1D16C4881
:1002E000006800F4003010B10120009001E000200F
:1002F00000900098012846D165484030006840F0E1
:1003000080506349403108606248006840F44040D2
:10031000604908605E48083000685D49083108603F
:100320000846006840F4004008600846006840F451
:10033000A05008605848091F0860081F006840F076
:100340008070091F086000BF5148006800F000700D
:100350000028F9D040F20570504908604C48083038
:10036000006820F003004A49083108600846006828
:1003700040F00200086000BF45480830006800F007
:100380000C000828F8D10CBD10B54548006840F4B1
:100390007000434908603E48006840F001003C4955
:1003A000086000203A4908310860394800683D4932
:1003B0000840374908603C48091D0860081F00686C
:1003C00020F48020091F0860002031490C310860AA
:1003D000FFF76CFF4FF0006031498039086010BDB5
:1003E00070B500200022022300240221284D083588
:1003F0002D6805F00C0020B1042806D0082834D15F
:1004000007E02A4D2A4E356033E02A4D284E3560EC
:100410002FE01F4D2D1D2D68C5F380541C4D2D1D43
:100420002D6805F03F0154B1224DB5FBF1F5184E92
:10043000361D3668C6F3881605FB06F209E01B4D2B
:10044000B5FBF1F5124E361D3668C6F3881605FB6E
:1004500006F20F4D2D1D2D68C5F301456D1C6B0077
:10046000B2FBF3F5124E356003E0104D104E3560CF
:1004700000BF00BF064D08352D68C5F303150E4EAD
:10048000705D0B4D2D68C540094E356070BD000094
:10049000003802400070004008544007003C024011
:1004A00088ED00E0FFFFF6FE103000240024F40089
:1004B0000000002000127A00040000204FF4A06029
:1004C00005F080F8A82004F05DFF4FF4E13004F05F
:1004D000E9FF00F077F842F2CF014FF6FF7000F02D
:1004E000F3F800F029FB00F070FB2B492A4830306C
:1004F0000AF01EFC00F028F900F094FA00F0B9FFB1
:10050000002142F2CF0000F064FC07F0B3FF01F0DD
:1005100063FA08F007FB01F09FFB44F29F114FF6CE
:10052000FF7007F0B9F942F2CF014FF6FF7007F004
:100530000DFA44F29F114FF6FF7007F065FA07F0CD
:10054000D7FA01F0E5FB01F0BAFD03F0F6FE13A0C7
:100550000BF02CF80021174806F018FA0020164975
:10056000087018E000F022FA14490870002000F02A
:1005700047F81349087008F07AF808F0F3F801F02A
:100580003CF80AF035F90121052000F09FFA0AF045
:10059000A9FB07F079FDE5E7286002400D0A463423
:1005A0003037A3BAB5C8B4FDD3C3BBA7B0B4BCFC45
:1005B000210D0A0000100040170000201400002048
:1005C000150000201CB50121112005F095FF1C200D
:1005D000009000208DF8040003208DF80500012014
:1005E0008DF807006946354805F0E8FC01200090C9
:1005F00002208DF807006946314805F0DFFC1CBD7C
:1006000010B5044614B101202E4908702D48007819
:10061000002837D01021294805F032FD78B1082193
:10062000264805F02DFD50B10421244805F028FD91
:1006300028B10121224805F023FD012822D10A20FA
:1006400004F002FF00201F49087010211B4805F02C
:1006500017FD08B9012010BD0821184805F010FD4C
:1006600008B90220F7E70421144805F009FD08B98C
:100670000320F0E70121124805F002FD01281BD1FB
:100680000420E8E710210D4805F0FAFC012813D1F9
:1006900008210A4805F0F4FC01280DD1042107487F
:1006A00005F0EEFC012807D10121054805F0E8FC22
:1006B00010B90120034908700020CCE70010024067
:1006C00000000240160000207FB505460C460121BF
:1006D000102005F05AFF0295ADF804400020ADF857
:1006E0000600ADF80C0001A9154806F006F9012234
:1006F0001146134806F0A2FD0121114806F086F9C3
:1007000036208DF8000000208DF801008DF80200E1
:1007100001208DF80300684604F059FF7FBD10B535
:100720000121074806F0A1FD012804D10548007801
:10073000401C044908700121014806F0A7FD10BDC6
:10074000001000401700002000B589B001210846C4
:1007500005F0D2FE0121084605F028FF4FF4807015
:10076000079002208DF8200000208DF82200032041
:100770008DF8210001208DF8230007A9A24805F07B
:100780001DFC01220821A04805F0A3FCA720ADF81C
:100790000C000020ADF80E0042F210700490002012
:1007A000ADF8140003A9994806F0A7F80020ADF8A9
:1007B0000000ADF802000120ADF804000020ADF803
:1007C00006000320ADF808006946904806F06CFC6E
:1007D000012203218D4806F031FD01218B4806F0EE
:1007E00015F91B208DF8180002208DF81900012042
:1007F0008DF81A008DF81B0006A804F0E8FE1920F9
:100800008DF8180002208DF8190001208DF81A00CB
:100810008DF81B0006A804F0DAFE09B000BD10B583
:1008200001217A4806F021FD01282BD17848007873
:1008300000F0800030B37648007820F01000744952
:1008400008700846007800F00F0020B908460078CC
:1008500040F0400008706E48007800F00F000E284D
:1008600005DA6B480078401C694908700AE068485E
:10087000007820F08000664908700846007800F093
:10088000F00008700121614806F000FD10BD10B5B0
:1008900002215E4806F0E9FC012810D15D4800689D
:1008A00070B10221594806F0CCFA0021574806F0F1
:1008B0006DF85748007840F010005549087070E016
:1008C000524806F06FFC5449088000214F4806F05A
:1008D000B8FA4F48007800F0100000285BD04C4870
:1008E000007800F08000E8B34B480088B0F5967FB0
:1008F0000DDD49480088B0F5487F08DA47480068B0
:1009000040004649086008460068086043E04248E5
:100910000088B0F5AF6F0FDD3F480088B0F5E16F9C
:100920000ADA3E48006840003C4908600846006812
:1009300040F0010008602EE03748008840F698013A
:10094000884228DD3448008840F62821884222DA8F
:1009500033480078401C324908702D48007800F078
:10096000F00000E002E02A49087014E02A480088FC
:1009700041F2680188420EDD2748008841F25C217F
:10098000884208DA2248007840F080002049087048
:100990000020234908701E48007820F010001C49F0
:1009A00008700221194806F071FC10BD10B5002036
:1009B000174B1B7803F040032BB3184B1B68190E21
:1009C000164B1B68C3F30742D343DBB28B420BD1F8
:1009D00051B9124B1B88C3F30721104B1A78D3432C
:1009E000DBB28B4200D1084620B1094B1B7803F0E3
:1009F000800343B9064B1B7823F04003044C23705B
:100A00000023074C237010BD00000240000001408D
:100A100018000020200240421A0000201C00002084
:100A20002000002000B58DB00121084605F064FDCE
:100A30000121080205F0BAFD20200B9003208DF85B
:100A4000300000208DF833000BA9354805F0B6FAC8
:100A50000121080205F0FFFD00214FF4807005F030
:100A6000FAFD002007900A9009904FF4803008901A
:100A700007A804F051FE002001908DF808008DF8C1
:100A800009000390059001208DF8180001A9254860
:100A900004F013FE0121234804F055FE0DB000BD03
:100AA00010B504460723012221461E4804F08BFEA0
:100AB0001C4804F0E4FE00BF02211A4805F000F8CB
:100AC0000028F9D0174804F016FF10BD70B52DEDC1
:100AD000028B04460D4614480078401CC0B21249EF
:100AE0000870C82819DD002008702046FFF7D8FFDD
:100AF0000E4908800846008800EE100AB8EE400A49
:100B0000DFED0B0A20EE208A9FED0A0A28EE000A8C
:100B1000BCEEC00A10EE100A0880BDEC028B70BD5E
:100B2000000002400020014024000020220000209C
:100B30003333113C0000C84200B589B001210420C4
:100B400005F023FD0121082005F0D6FC4FF44050AC
:100B5000019002208DF8080001208DF80B0001A9FA
:100B6000864805F02BFA02220C21844805F0B1FAE0
:100B700002220D21814805F0ACFA06A805F0F1FE2D
:100B80000020ADF818004FF6FF7007900020ADF878
:100B90002000ADF81A0006A9794805F0AEFE022340
:100BA00000220121764806F01CFC03A806F0B3FAE7
:100BB0000A20ADF8140003A9714806F075FA012166
:100BC0006F4805F023FF09B000BD00B589B00121D1
:100BD000022005F0DAFC0121084605F08DFCC0205A
:100BE000019002208DF8080001208DF80B0001A96A
:100BF000644805F0E3F902220621624805F069FA2B
:100C0000022207215F4805F064FA06A805F0A9FE54
:100C10000020ADF818004FF6FF7007900020ADF8E7
:100C20002000ADF81A0006A9574805F066FE00231B
:100C300002220121544806F0D4FB03A806F06BFA07
:100C40000A20ADF8140003A94F4806F02DFA01213F
:100C50004D4805F0DBFE09B000BD30B5034600206D
:100C600000210022464C2488C4F30014474D2C7008
:100C7000454C2488C4F30014454D2C70032B3CD004
:100C8000042B76D13E4C24342468A1B23F4C247806
:100C9000A4B94EF66024A14210DA47F6FF74A142CF
:100CA00004DA374C2434246820B207E047F6FF7496
:100CB000A14203DB324C24342468A0B2334C2478A4
:100CC000012C15D141F28834A14211DDB1F5004F5C
:100CD00004DD2B4C2434246820B209E0B1F5004F28
:100CE00006DC274C24342468A4B2A4F57F40FF38E6
:100CF0000024234D24352C603DE0234C243424680B
:100D0000A2B2234C2478A4B94EF66024A24210DA91
:100D100047F6FF74A24204DA1B4C2434246820B244
:100D200007E047F6FF74A24203DB174C2434246823
:100D3000A0B2174C2478012C15D141F28834A2427C
:100D400011DDB2F5004F04DD0F4C2434246820B2CD
:100D500009E0B2F5004F06DC0B4C24342468A4B241
:100D6000A4F57F40FF380024074D24352C6002E0B5
:100D7000FFE7002000BF00BF30BD0000000C0240B4
:100D80000008004000000240000400402500002050
:100D9000260000201CB50121022005F0ADFB032038
:100DA000009001208DF8040000208DF8060002203C
:100DB0008DF805006946BA4805F000F901210220C6
:100DC00005F09AFB602000906946B54805F0F6F8FA
:100DD0001CBD30B58BB005460C46FFF7DBFF01218B
:100DE000080405F0E3FB0121102005F085FB6020DD
:100DF000099002208DF8280000208DF82A0002209A
:100E00008DF8290009A9A74805F0D8F80322052183
:100E1000A44805F05EF903220621A24805F059F91D
:100E20000795ADF818400020ADF82000ADF81A0085
:100E300006A99D4805F061FD6020ADF80400012081
:100E4000ADF8060000200390ADF8100001A9964807
:100E500005F0E8FD01A9944805F01DFE082192481F
:100E600005F06DFF0821904805F072FF01218E48C2
:100E700005F0AEFD01218C4805F0C8FD0BB030BD7A
:100E80000146002901DA484200E00846704700B5F3
:100E900003460A46002A07DA012084490860002038
:100EA0008349C1F8940206E00020804908600120CF
:100EB0007F49C1F894021046FFF7E2FF7A49886340
:100EC000002B08DA0020794914390860012078499C
:100ED000C1F8800207E0012074491439086000203D
:100EE0007349C1F880021846FFF7CAFF6E4948638C
:100EF00000BD4FF4FA506F4909684242914202DA4C
:100F000041426C4A11606B490968814201DD6949BF
:100F10000860694909684242914202DA4142664AE0
:100F2000116065490968814201DD634908607047C5
:100F300010B5FFF7DEFF6148007810B90120604965
:100F400008705E480078622812D15D480078012858
:100F50000ED1642100F05EFD002059490870594807
:100F600090ED000ADFED580A30EE200A80ED000A0D
:100F700052480078A82812D15148007801280ED193
:100F8000642100F047FD00204D4908704D4890ED68
:100F9000000ADFED4D0A30EE600A80ED000A474896
:100FA000007822282BD146480078012827D16421D7
:100FB00000F030FD0020424908704448007848B9EC
:100FC000434890ED000AF3EE0E0A30EE200A80ED61
:100FD000000A14E03D480078012810D13D4890ED0A
:100FE000010AF0EE080A30EE200A80ED010A90EDC9
:100FF000000AF0EE080A30EE200A80ED000A2F48C1
:101000000078C2282BD12E480078012827D16421EE
:1010100000F000FD00202A4908702C48007848B9EB
:101020002B4890ED000AF3EE0E0A30EE600A80EDD8
:10103000000A14E025480078012810D1254890EDD9
:10104000010AF0EE080A30EE600A80ED010A90ED28
:10105000000AF0EE080A30EE600A80ED000A174838
:101060000078422808D16421012000F0D3FC002040
:10107000104908601049086010480078022808D11B
:101080006421012000F0C6FC00200A4908600A49DA
:1010900008600948016807480068FFF7F8FE10BDBE
:1010A000000402400010024000400140988240428B
:1010B00000804042280000202C0000201400002066
:1010C0003000002080010020CDCCCC3D70010020FC
:1010D000840100209801002010B5FE4B1960002308
:1010E000FD4CC4F89C32002214E00023FB4C23602A
:1010F00000F080031BB10123241D236003E00023C3
:10110000F64C241D23600123F44C23604306180E83
:10111000531CDAB2082AE8DB0123F14C2360F14CBE
:10112000C4F8983210BD30B500241CE004F1B001C1
:10113000C8B20021FFF7D0FF00210846FFF7CCFF1F
:1011400000211020FFF7C8FF002508E0E64901EB69
:10115000C501085D0121FFF7BFFF681CC5B2802DE6
:10116000F4DB601CC4B2082CE0DB30BD00B500210C
:101170008D20FFF7B1FF00211420FFF7ADFF002104
:10118000AF20FFF7A9FF00BD00B500218D20FFF7BC
:10119000A3FF00211020FFF79FFF0021AE20FFF7E3
:1011A0009BFF00BD30B500240CE0002506E00020C8
:1011B000CD4901EBC5010855681CC5B2802DF6DB91
:1011C000601CC4B2082CF0DBFFF7ADFF30BDF0B5FA
:1011D000144600267F2801DC3F2900DDF0BD0B46C8
:1011E000CF1701EB5777FF10C7F10707FAB2CF17F8
:1011F00001EB5777FF10A1EBC707FDB2C5F1070759
:101200000123BB40DEB24CB1B74B03EBC0039B5C88
:101210003343B54F07EBC007BB5408E0B24B03EBB9
:10122000C0039B5CB343B04F07EBC007BB5400BF88
:10123000D4E72DE9F04706460F4690469946DDF87B
:1012400020A034460CE03D4606E0524629462046A2
:10125000FFF7BDFF681CC5B24D45F6DD601CC4B28A
:101260004445F0DDFFF75FFFBDE8F0872DE9F84F5B
:1012700080460F4616461C46BA462046E31704EB46
:101280005373DB1021464FEAE47C04EB5C7C4FEAAD
:10129000EC0CA4EBCC0CBCF1000F02D04FF0010C15
:1012A00001E04FF0000C6344224604EBD27C4FEA8D
:1012B0006C0C03FB0CF303F0FF0BA6F12000C6B28D
:1012C00000254EE00C2C07D106EB4600874901EBC8
:1012D0008000405D009013E0102C05D1844800EBA5
:1012E0000610405D00900BE0182C07D106EBC600FD
:1012F000804901EB8000405D009001E0BDE8F88F7F
:101300004FF0000927E0009800F0800028B139462E
:1013100040460A9AFFF75BFF09E00A9808B90120E6
:1013200000E00020024639464046FFF750FF009893
:101330004006000E0090781CC7B2A7EB0A00A0423E
:1013400005D1574608F1010000F0FF0806E009F159
:10135000010000F0FF09B9F1080FD4DB00BF681CE1
:10136000C5B25D45AEDB00BFC8E710B5024601203F
:1013700000E050430B1EA1F10104E1B2F9D110BD10
:101380002DE9FF4F81B0074691461E460E9D4FF056
:10139000000A002439E0301B401EC1B20A20FFF7CA
:1013A000E4FFB9FBF0F00A21B0FBF1F201FB1208F7
:1013B000BAF1000F16D1701EA04213DDB8F1000F74
:1013C0000ED10120AB4605EBDB71491001FB047126
:1013D0000090C8B22B4620220299FFF747FF12E087
:1013E0004FF0010A0120AB4605EBDB71491001FB10
:1013F00004710090C8B208F13001CAB22B460299BC
:10140000FFF734FF00BF601CC4B2B442C3DB05B0B9
:10141000BDE8F08FF8B506460F4615461C4621E09C
:1014200004EBD4714910C1F18001B14202DA002607
:101430003819C7B2C4F14000B84204DA00200646A9
:101440000746FFF7AFFE012000902A782346394671
:101450003046FFF70BFF204604EBD07106EB61012D
:10146000CEB26D1C28787E2802DC28782028D7DAB6
:10147000F8BD1CB501215F2005F03EF880200090EA
:1014800001208DF8040000208DF8060003208DF85F
:10149000050001208DF807006946174804F08EFD0D
:1014A000C02000906946154804F088FD4020009057
:1014B0006946134804F082FD4FF4004000906946ED
:1014C000104804F07BFD01200449091D08600E4905
:1014D0001CE0000098824142008040429802414254
:1014E0009C82404200804142600300205AE2000892
:1014F000CEE60008BEEC00080004024000080240EE
:10150000000C02400018024000004142C1F898025D
:10151000FE490860FE4908600020FE49086064201A
:1015200003F092FF0120FC49C1F8BC020021AE206B
:10153000FFF7D2FD0021D520FFF7CEFD002150207E
:10154000FFF7CAFD0021A820FFF7C6FD00213F20BC
:10155000FFF7C2FD0021D320FFF7BEFD00210846A2
:10156000FFF7BAFD00214020FFF7B6FD00218D20D6
:10157000FFF7B2FD00211420FFF7AEFD002120206F
:10158000FFF7AAFD00210220FFF7A6FD0021A12000
:10159000FFF7A2FD0021C020FFF79EFD0021DA2009
:1015A000FFF79AFD00211220FFF796FD0021812010
:1015B000FFF792FD0021EF20FFF78EFD0021D920DB
:1015C000FFF78AFD0021F120FFF786FD0021DB20D7
:1015D000FFF782FD00213020FFF77EFD0021A420CF
:1015E000FFF77AFD0021A620FFF776FD0021AF204E
:1015F000FFF772FDFFF7D6FD1CBD38B5C748007870
:10160000401CC0B2C5490870C8287DDD00200870A4
:10161000C34890ED000ADFEDC30A20EE200ABDEEBC
:10162000C00AC14880ED000ABD4890ED010ADFED17
:10163000BD0A20EE200ABDEEC00ABC4880ED000ABB
:10164000B74890ED020ADFEDB70A20EE200ABDEEA2
:10165000C00AB74880ED000A0C23B6A20021084654
:10166000FFF7D8FEB0480068002806DA0C23B2A2C3
:1016700000211E20FFF7CEFE05E00C23AFA20021C3
:101680001E20FFF7C7FEA8480068FFF7F9FB64219A
:1016900090FBF1F40C200423224600210090282026
:1016A000FFF76EFE0C23A6A200214120FFF7B2FE39
:1016B0009D480068FFF7E4FB642190FBF1F201FB19
:1016C00012040C2004232246002100904620FFF73C
:1016D00057FE0C239BA200216E20FFF79BFE924831
:1016E0000068FFF7CDFB642190FBF1F201FB1200D3
:1016F0000A2807DA0C200423002211460090462015
:10170000FFF73EFE0C2300E062E18FA20A210020D9
:10171000FFF780FE85480068002806DA0C2386A2C1
:101720000A211E20FFF776FE05E00C2383A20A2182
:101730001E20FFF76FFE7D480068FFF7A1FB6421C4
:1017400090FBF1F40C20042322460A21009028206B
:10175000FFF716FE0C237AA20A214120FFF75AFE5A
:1017600072480068FFF78CFB642190FBF1F201FBEB
:1017700012040C20042322460A2100904620FFF781
:10178000FFFD0C236FA20A216E20FFF743FE67487E
:101790000068FFF775FB642190FBF1F201FB12007A
:1017A0000A2807DA0C20042300220A210090462090
:1017B000FFF7E6FD0C2365A214210020FFF72AFEA7
:1017C0005B480068002806DA0C235BA214211E2067
:1017D000FFF720FE05E00C2358A214211E20FFF77E
:1017E00019FE53480068FFF74BFB642190FBF1F4AE
:1017F0000C2004232246142100902820FFF7C0FD6E
:101800000C234FA214214120FFF704FE4848006832
:10181000FFF736FB642190FBF1F201FB12040C2070
:1018200004232246142100904620FFF7A9FD0C2333
:1018300047A214216E20FFF7EDFD3D480068FFF739
:101840001FFB642190FBF1F201FB12000A2807DA6A
:101850000C2004230022142100904620FFF790FD65
:101860000C233CA228210020FFF7D4FD0C2334A236
:1018700028214120FFF7CEFD0C2338A228216E201D
:10188000FFF7C8FD3648B0F90000642190FBF1F481
:101890000C2004232246282100900846FFF770FD03
:1018A0002F48B0F90000642190FBF1F201FB120413
:1018B0000C2004232246282100904620FFF760FDDB
:1018C0002748B0F90000642190FBF1F201FB1200FF
:1018D0000A2807DA0C200423002228210090462041
:1018E000FFF74EFD0C231FA232210020FFF792FDCF
:1018F0000C2313A232214120FFF78CFD0C231BA2E5
:1019000032216E20FFF786FD194833E09C82404269
:1019100098824142BC024342000043424000002002
:10192000D80800200000C842340000203800002001
:101930003C000020583A20002D0000002B00000041
:101940002E0000006D000000593A20005A3A0000B5
:1019500064656700544D503A2000000043000000C9
:10196000440100204144433A20000000560000009A
:10197000220000200088642190FBF1F40C20042355
:101980002246322100902820FFF7FAFC11480088F7
:10199000642190FBF1F201FB12040C200423224687
:1019A000322100904620FFF7EBFC0A4800886421B2
:1019B00090FBF1F201FB12000A2807DA0C20042345
:1019C0000022322100904620FFF7DAFCFFF7ABFB44
:1019D00038BD0000220000201CB50121202004F0A9
:1019E0008BFD4FF48070009001208DF804000020E2
:1019F0008DF8060003208DF8050002208DF8070001
:101A00006946104804F0DAFA4FF480710D4804F08A
:101A100053FB1CBD70B504460D4600260EE00120A8
:101A200009490860284603F00FFD00200749C1F866
:101A3000A002284603F008FD701CC6B2A642EEDBE9
:101A400070BD000000140240A08242420080424269
:101A500030B503461C788C545D78541C0D559D7828
:101A6000941C0D55DD78D41C0D5530BD11B52DEDF0
:101A7000020B04460A2C00DC04B91EBD0B2C43D219
:101A8000DFE804F042060C12181E242A30363C000F
:101A9000012296496846FFF7DBFF35E005229349AE
:101AA0006846FFF7D5FF2FE0092290496846FFF707
:101AB000CFFF29E00D228D496846FFF7C9FF23E0DB
:101AC00011228A496846FFF7C3FF1DE015228749A6
:101AD0006846FFF7BDFF17E0192284496846FFF703
:101AE000B7FF11E01D2281496846FFF7B1FF0BE007
:101AF00021227E496846FFF7ABFF05E025227B499E
:101B00006846FFF7A5FF00BF00BF00BFB5E701466D
:101B10000A2900DC09B9002070472420734A10709C
:101B20000B293CD2DFE801F03B060B10151A1F24ED
:101B3000292F350005206D4A50710620ECE7092059
:101B40006A4A50720A20E7E70D20684A50730E2057
:101B5000E2E71120654A50741220DDE71520634A40
:101B600050751620D8E71920604A50761A20D3E71E
:101B70001D205E4A50771E20CEE721205B4A82F866
:101B800021002220C8E72520584A82F82500262077
:101B9000C2E72920554A82F829002A20BCE7002004
:101BA000BAE70FB430B5DDED030AB0EE600A0120EC
:101BB000FFF75CFFDDED040AB0EE600A0220FFF7DC
:101BC00055FFDDED050AB0EE600A0320FFF74EFF7A
:101BD000DDED060AB0EE600A0420FFF747FF05209E
:101BE000434991ED000AFFF741FF0620414991ED7D
:101BF000000AFFF73BFF07203F4991ED000AFFF77E
:101C000035FF08203D4991ED000AFFF72FFF09201D
:101C10003B4991ED000AFFF729FF0A20394991ED70
:101C2000000AFFF723FF0A20FFF771FF0546002493
:101C30000DE000BF3448008800F040000028F9D0D3
:101C40002A48005D3049091D0880601CC4B2AC42BE
:101C5000EFDB30BC5DF814FB00B587B0012108460E
:101C600004F04AFC0121480404F08FFC0722022101
:101C7000264804F02EFA07220321244804F029FA0A
:101C80000420059002208DF818008DF8190000201E
:101C90008DF81A0001208DF81B0005A91B4804F0DF
:101CA0008DF90820059002208DF8180000208DF88D
:101CB0001B0005A9154804F081F94FF47A30019012
:101CC0000020ADF80800ADF80A00ADF80C00ADF842
:101CD00010000C20ADF80E0001A90B4805F019FC0E
:101CE0000121094805F09DFC07B000BD60070020F8
:101CF00020010020280100209401002090010020F4
:101D00008C010020880100200044004000000240B7
:101D10001CB50121022004F0EFFB4FF4405000906D
:101D200001208DF8040000208DF8060003208DF8B6
:101D3000050001208DF807006946044804F03EF9CB
:101D40004FF44051014804F0B7F91CBD00040240B3
:101D50001CB50121022004F0CFFB4FF4407000902D
:101D600001208DF8040000208DF8060003208DF876
:101D7000050001208DF807006946894804F01EF926
:101D80000120884908608849C1F8A4021CBD10B52B
:101D90008348006820F440208149086008460068B4
:101DA00040F48020086001207E49091D08607E49BA
:101DB000C1F8A002042003F0FFFA00207949091DB0
:101DC0000860042003F0F8FA00207749C1F8A00267
:101DD00010BD10B57248006820F4402070490860BA
:101DE0000846006840F48020086000206D490860C3
:101DF0006D49C1F8A402042003F0DEFA012069490C
:101E000008606949C1F8A402042003F0D5FA10BDA6
:101E100010B500246248006820F440206049086042
:101E200008460068086001205E49091D086003F04B
:101E3000C3FA01205C49C1F8A00203F0BDFA07E033
:101E4000601CC4B2FA2C03DDFFF7C3FF012010BDF4
:101E500054487C3800680028F2D15249086000BF1D
:101E6000F5E710B500204F4908604D48006820F4A0
:101E700040204B4908600846006840F48020086014
:101E800000204949C1F8A402022003F095FA01207C
:101E900044490860022003F08FFA00204249C1F84B
:101EA000A00210BD10B500203E4908603C48006803
:101EB00020F440203A4908600846006840F4802039
:101EC000086001203849C1F8A402022003F074FA26
:101ED000012034490860022003F06EFA00203249E4
:101EE000C1F8A00210BD70B504462D48006820F46A
:101EF00040202B4908600846006840F480200860B4
:101F0000002028490860002517E0E0092549091D3F
:101F100008606006040E022003F04EFA01202249F8
:101F2000C1F8A002022003F047FA00201D49086012
:101F3000022003F041FA681CC5B2082DE5DB70BD34
:101F400070B5054600241648006820F44020144966
:101F50000860084600680860002616E00020114965
:101F60000860022003F028FA01200F49C1F8A002FE
:101F70006006040E0B487C38006808B1601CC4B2CF
:101F8000012003F019FA701CC6B2082EE6DB15B961
:101F9000FFF788FF01E0FFF764FF204670BD0000F7
:101FA00000040240A08240420080404270B50546D5
:101FB0000C46FFF7ECFED020FFF795FFFFF728FF58
:101FC00018B1FFF706FF012070BD2846FFF78BFF11
:101FD000FFF71EFF2046FFF786FFFFF719FF18B136
:101FE000FFF7F7FE0120EFE7FFF7F3FE0020EBE736
:101FF00070B504460025BC2C01DB012510E0622CE5
:1020000001DB02250CE02A2C01DB032508E0142C5F
:1020100001DB042504E00A2C01DB052500E0062590
:1020200029461A20FFF7C2FF70BD70B50446B4F50B
:102030007A7F01DD4FF47A74042C00DA04244FF423
:102040007A7090FBF4F0401EC5B229461920FFF7C4
:10205000ADFF0546264604EBD671C1F34F00FFF7EE
:10206000C7FF70BD70B50446FFF791FED020FFF7A3
:102070003AFFFFF7CDFE2046FFF735FFFFF7C8FE1A
:10208000FFF785FED120FFF72EFFFFF7C1FE0020EE
:10209000FFF756FF0546FFF79CFE284670BD10B5BA
:1020A0000446E006010E1C20FFF780FF10BD10B5AE
:1020B0000446E006010E1B20FFF778FF10BD10B5A7
:1020C000FFF746FE80216B20FFF770FF642003F0CE
:1020D000BBF900216B20FFF769FF0320FFF7E7FF43
:1020E0000020FFF7DCFF3220FFF79FFF00213820A0
:1020F000FFF75CFF00216A20FFF758FF0021232033
:10210000FFF754FF80213720FFF750FF7520FFF7BE
:10211000A9FF0446682C0BD101216B20FFF746FF75
:1021200000216C20FFF742FF3220FFF77EFF01E025
:10213000012010BD0020FCE72DE9F04106460F46C6
:1021400014461D46FFF723FE002141EA4601C8B2AE
:10215000FFF7C9FEFFF75CFE20B1FFF73AFE012052
:10216000BDE8F0813846FFF7BEFEFFF751FEFFF7EE
:102170000EFE012101EB4601C8B2FFF7B4FEFFF7E6
:1021800047FE0DE0012C04D10020FFF7D9FE287096
:1021900003E00120FFF7D4FE2870601EC4B26D1C5E
:1021A000002CEFD1FFF715FE0020D9E710B52DED7B
:1021B000088B82B001AB022241216820FFF7BCFFEF
:1021C0009DF805009DF8041040EA012004B2204665
:1021D0000BF069FC41EC1B0B9FED510B53EC102BEA
:1021E0000BF0ACFA41EC1A0B9FED4F0B53EC102B9C
:1021F0000BF0F0F941EC190B0BF0BAF908EE100AEC
:102200009FED4B0A28EE000ABDEEC00A10EE100A40
:1022100000B202B0BDEC088B10BD2DE9FC410446B4
:102220000D4616466B46062243216820FFF784FFC1
:102230000746D7B99DF801009DF8001040EA01203B
:1022400000B220809DF803009DF8021040EA0120B2
:1022500000B228809DF805009DF8041040EA012096
:1022600000B230800020BDE8FC810120FBE72DE9B1
:10227000FC4104460D4616466B4606223B2168206B
:10228000FFF75AFF0746BFB99DF801009DF80010FF
:1022900040EA012000B220809DF803009DF8021062
:1022A00040EA012000B228809DF805009DF8041046
:1022B00040EA012000B230803846BDE8FC812DE9BB
:1022C000F04105460E4617469846FFF760FD00218F
:1022D00041EA4501C8B2FFF706FEFFF799FD20B1BC
:1022E000FFF777FD0120BDE8F0813046FFF7FBFDE9
:1022F000FFF78EFD00240CE018F80400FFF7F3FD53
:10230000FFF786FD18B1FFF764FD0120EBE7601CC5
:10231000C4B2BC42F0DBFFF75CFD0020E3E7000045
:102320000000000000407540A4703D0AD7434240C1
:102330000000C84238B50446F74890F82400C0B100
:1023400014B10220009001E000200090F24A1268CF
:10235000D17BF14A526810786B460122FFF7AFFF3C
:1023600010B14FF0FF3038BD9DF80010EA484174BD
:1023700023E0E948807A10B94FF0FF30F3E724B149
:10238000E548407C08B10020EDE714B10120009041
:1023900001E000200090E04A1268D17BDE4A5268DA
:1023A00010786B460122FFF78AFF10B14FF0FF3023
:1023B000D9E79DF80010D84841740020D3E738B51C
:1023C00000241FE0D4480068C07AA04204D0D2485C
:1023D0000068407DA04200D112E0CF4949680878EA
:1023E0006B4601222146FFF7A7FE10B14FF0FF30E8
:1023F00038BD9DF800202146C8A009F0D7F800BFDD
:10240000601CC4B2C44840680079A042DADC0020F5
:10241000EEE770B504460D46BF480068C07AA0429A
:1024200004D0BD480068407DA04202D14FF0FF308B
:1024300070BDB94840680079A04202DC4FF0FF301F
:10244000F6E7B549496808782B4601222146FFF78F
:1024500073FEEDE738B50446AF4890F82300A0427C
:1024600001D1002038BD14B13020009001E00020DF
:102470000090A948807C20B19DF8000040F0020047
:102480000090A54890F8220020B19DF8000040F08F
:1024900080000090A04A1268117D9F4A526810780F
:1024A0006B460122FFF70BFF10B14FF0FF30D9E769
:1024B000994880F823400020D4E738B5044604F05A
:1024C000700010B10120009005E014B100200090D0
:1024D00001E040200090904A1268917C8E4A526838
:1024E00010786B460122FFF7EAFE20B100218A48EE
:1024F0008172481E38BD9DF8000020F040018648DA
:1025000001730020009004F0400020B99DF8000005
:1025100040F00400009004F0200020B99DF8000075
:1025200040F00200009004F0100020B99DF8000077
:1025300040F00100009004F0080020B99DF8000070
:1025400040F038000090744A1268D17C724A526898
:1025500010786B460122FFF7B2FE20B100216E48D1
:102560008172481EC6E724B1082C02D00020FFF774
:1025700071FF6948847200210175322002F064FF06
:102580000020B7E738B504466348807CA04201D1FB
:10259000002038BD002C46D05F4A126811795E4A8F
:1025A000526810786B460122FFF7C6FD10B14FF05C
:1025B000FF30EEE79DF8000020F020000090564A22
:1025C00012681179544A526810786B460122FFF75D
:1025D00076FE10B14FF0FF30DBE7032002F034FF4E
:1025E000022000904C4890F8220020B19DF8000095
:1025F00040F080000090484890F8230020B19DF8FA
:10260000000040F030000090434A1268117D424AB9
:10261000526810786B460122FFF751FE002851D016
:102620004FF0FF30B5E73C4A126811793A4A5268D8
:1026300010786B460122FFF77FFD10B14FF0FF309D
:10264000A7E73548807A00F0010028B19DF8000026
:1026500040F02000009004E09DF8000020F02000F1
:1026600000902D4A126811792B4A526810786B46F7
:102670000122FFF724FE10B14FF0FF3089E703205D
:1026800002F0E2FE244890F8220010B18020009071
:1026900001E000200090204890F8230020B19DF830
:1026A000000040F0300000901B4A1268117D1A4A69
:1026B000526810786B460122FFF701FE10B14FF00F
:1026C000FF3066E714488474002062E708B51248BA
:1026D000807A10B94FF0FF3008BD002000900E4AFC
:1026E0001268D17B0C4A526810786B460122FFF7C2
:1026F000E6FD10B14FF0FF30EEE7074A126851795E
:10270000054A526810786B460122FFF7D8FD68B180
:102710004FF0FF30E0E7000044000020252335782B
:102720003A20252335780D0A00000000F84A126887
:102730001179F74A526810786B460122FFF7BFFD06
:1027400010B14FF0FF30C7E7F14890F8240000289F
:1027500053D00C200090EE4A12681179EC4A52686E
:1027600010786B460122FFF7AAFD10B14FF0FF3041
:10277000B2E7322002F068FEC0200090E448807A80
:1027800000F0010020B19DF8000040F02000009012
:10279000DF4A12681179DE4A526810786B460122CE
:1027A000FFF78DFD10B14FF0FF3095E7D848407C22
:1027B00010B10220009001E000200090D44A12687D
:1027C000D17BD34A526810786B460122FFF777FD20
:1027D00010B14FF0FF307FE700200090CC4A126824
:1027E0005179CB4A526810786B460122FFF767FD9A
:1027F000002855D04FF0FF306EE704200090C44A07
:1028000012681179C24A526810786B460122FFF7AC
:1028100056FD10B14FF0FF305EE7BD48807C20B917
:10282000BB48807A00F0010010B94020009001E020
:1028300060200090B64A12681179B54A5268107843
:102840006B460122FFF73BFD10B14FF0FF3043E72D
:10285000322002F0F9FDAE48407C10B1012000901A
:1028600001E000200090AA4A1268D17BA84A526871
:1028700010786B460122FFF722FD10B14FF0FF30B8
:102880002AE7A34A12685179A14A52681078A04BEE
:1028900010330122FFF713FD10B14FF0FF301BE79B
:1028A000002019E770B50446002624F0010498487A
:1028B00090F8240008B1002070BD9548807A10B9C6
:1028C0004FF0FF30F8E79248057C807A204090492D
:1028D00008740846007CA04202D04FF0FF3600E0AA
:1028E000002614B98A48007D18B10120FFF722FDA7
:1028F00002E00020FFF71EFD3CB1FFF7E7FE20B12C
:10290000834805744FF0FF30D6E73046D4E738B53A
:1029100004467F48807A10B94FF0FF3038BDBC2C98
:1029200002DB0120009015E0622C02DB0220009007
:1029300010E02A2C02DB032000900BE0142C02DBB9
:102940000420009006E00A2C02DB0520009001E044
:10295000062000906E48C07A9DF80010884201D190
:102960000020DBE76A4A12689178694A5268107859
:102970006B460122FFF7A3FC10B14FF0FF30CDE70B
:102980009DF800106248C1720020C7E738B50446C0
:10299000282C02DD4FF0FF3038BDDCB90020FFF7F6
:1029A00059FD00208DF8000007208DF80100584ADD
:1029B0001268917C564A526810786B460222FFF7E3
:1029C0007EFC10B14FF0FF30E6E700215048017562
:1029D0000020E1E70120FFF73DFD20208DF80000F9
:1029E000012C06D100208DF801000520FFF78FFF94
:1029F00017E0052C06DC01208DF801000520FFF70B
:102A000086FF0EE0142C06DC02208DF801000A205F
:102A1000FFF77DFF05E003208DF801001420FFF78C
:102A200076FF9DF80100072101EB8010C0B28DF800
:102A30000100374A1268917C354A526810786B461B
:102A40000222FFF73CFC10B14FF0FF30A4E7082151
:102A50002F48817200210173012101750020FFF7C9
:102A600021FF002098E738B504462948807A10B93C
:102A70004FF0FF3038BD264890F8240010B14FF0D9
:102A8000FF30F7E72248007D50B134B1282C04DC38
:102A9000E0B2FFF77BFF0020ECE70020FFF776FFB6
:102AA000042C01DA042404E0B4F57A7F01DD4FF44C
:102AB0007A744FF47A7090FBF4F0401EC0B200902C
:102AC000134A12685178124A526810786B460122F4
:102AD000FFF7F5FB10B14FF0FF30CBE79DF800009A
:102AE000401C4FF47A7191FBF0F081B20848C1812B
:102AF0000146C9894810FFF70AFF0020BAE738B538
:102B000004460348807A28B94FF0FF3038BD0000F2
:102B100044000020022C06D0042C07D0082C08D03A
:102B2000102C0CD108E0002000900BE00820009051
:102B300008E01020009005E01820009002E04FF01F
:102B4000FF30E3E700BFF748407A9DF80010B0EB94
:102B5000E10F01D10020D9E7F24A1268D179F14A98
:102B6000526810786B460122FFF7A9FB10B14FF0B5
:102B7000FF30CBE79DF80000C110EA484172002009
:102B8000C4E738B50446E748807A10B94FF0FF3003
:102B900038BDFA2C09D0B4F5FA7F09D0B4F57A7FA4
:102BA00009D0B4F5FA6F0CD108E0002000900BE0DA
:102BB0000820009008E01020009005E01820009008
:102BC00002E04FF0FF30E3E700BFD648007A9DF8FF
:102BD0000010B0EBE10F01D10020D9E7D14A126813
:102BE0009179D04A526810786B460122FFF767FB53
:102BF00010B14FF0FF30CBE79DF80000C010C9497D
:102C000008720020C4E71CB580208DF80000C54A7A
:102C10001268917CC34A526810786B460122FFF714
:102C20004EFB10B14FF0FF301CBD642002F00CFCD5
:102C300000208DF80000BB4A1268917CB94A5268A6
:102C400010786B460122FFF73AFB10B14FF0FF30CE
:102C5000EAE7B44A1268917DB24A526810786B462E
:102C60000622FFF769FA10B14FF0FF30DCE79DF85C
:102C70000500C007400F9DF8031001F0010140EA74
:102C800041009DF8011001F0010140EA010494B1F6
:102C9000012C03D10121A348C17431E0022C03D1DE
:102CA0000021A048C1742BE021469FA008F07EFCC3
:102CB0004FF0FF30B8E79B4A1268D178994A5268C2
:102CC00010786B460122FFF737FA10B14FF0FF3052
:102CD000AAE79DF8000000F00F042CB99C4808F00A
:102CE00065FC4FF0FF309FE7042C06D199A008F057
:102CF0005DFC01218B48C17402E000218948C17448
:102D0000FF2188488172FF2086490872FF2185488B
:102D10004172C1724FF6FF71C181FF21017481744C
:102D20000121017380F82210002180F823104175E1
:102D300001751630016041608160163880F82410FA
:102D400080F82510C1844FF4FA60FFF71AFF10B124
:102D50004FF0FF3068E70220FFF7D1FE10B14FF0CF
:102D6000FF3061E72A20FFF7D2FD10B14FF0FF30AE
:102D70005AE73220FFF777FE10B14FF0FF3053E7EC
:102D80000020FFF78FFD10B14FF0FF304CE700201F
:102D9000FFF7F8FB10B14FF0FF3045E70020FFF7D9
:102DA0008CFB002040E770477CB504460D465D482B
:102DB000807A00F0700010B94FF0FF307CBD594AA6
:102DC0001268117B574A526810786B460622FFF74B
:102DD000B3F910B14FF0FF30F0E79DF801009DF816
:102DE000001040EA012000B220809DF803009DF809
:102DF000021040EA012000B260809DF805009DF8B5
:102E0000041040EA012000B2A08015B12846FFF767
:102E1000CAFF0020D2E77CB504460D464148807ABF
:102E200000F0080010B94FF0FF307CBD3D4A126839
:102E3000517B3C4A526810786B460622FFF77CF9BA
:102E400010B14FF0FF30F0E79DF801009DF8001041
:102E500040EA012000B220809DF803009DF8021096
:102E600040EA012000B260809DF805009DF8041042
:102E700040EA012000B2A08015B12846FFF793FF79
:102E80000020D2E7F8B506460C462648807A10B9ED
:102E90004FF0FF30F8BD234A1268917B214A5268F7
:102EA00010786B460222FFF747F910B14FF0FF3060
:102EB000F0E79DF801009DF8001040EA012005B2FE
:102EC00014B12046FFF76FFF16484068B0F90800BC
:102ED00000EE100AF8EEC00A00EE105AB8EEC00A72
:102EE00070EE600A0F484068C08800EE100AB8EE25
:102EF000400A80EE801A9FED1F0A31EE000ADFEDD6
:102F00001E0A20EE200ABDEEC00A86ED000A00204F
:102F1000C0E710B588B004461CB94FF0FF3008B0C8
:102F200010BD2BE044000020556E737570706F72F9
:102F300074656420736F6674776172652070726F58
:102F400064756374207265762025642E0A00000083
:102F50001C18010848616C662073656E736974699A
:102F600076697479207061727420666F756E642E54
:102F70000A00000000000C4200008047206830B9C1
:102F8000606820B9A06810B9002008B010BDF949E8
:102F90004968087806AB03221146FFF7CDF810B157
:102FA0004FF0FF30F1E79DF81800082101EB2010E9
:102FB00000F00F00ADF800009DF8190001EB2010A3
:102FC00000F00F00ADF802009DF81A0001EB201090
:102FD00000F00F00ADF8040020684100BDF90000CA
:102FE000403091FBF0F000B2ADF810006068410095
:102FF000BDF90200403091FBF0F000B2ADF81200D4
:10300000A0684100BDF90400403091FBF0F000B22F
:10301000ADF81400D7494968087806AB0622114676
:10302000FFF78AF810B14FF0FF30AEE79DF81900B6
:103030009DF8181040EA012000B2ADF808009DF894
:103040001B009DF81A1040EA012000B2ADF80A00FA
:103050009DF81D009DF81C1040EA012000B2ADF85B
:103060000C00BDF81000BDF80810084400B2ADF81F
:103070001000BDF81200BDF80A10084400B2ADF807
:103080001200BDF81400BDF80C10084400B2ADF8F1
:103090001400BDF81000000A8DF81800BDF81000EB
:1030A000C0B28DF81900BDF81200000A8DF81A00A0
:1030B000BDF81200C0B28DF81B00BDF81400000A64
:1030C0008DF81C00BDF81400C0B28DF81D00A94990
:1030D0004968087806AB06221146FFF7F0F810B1F0
:1030E0004FF0FF3051E700204FE70146A148007A3A
:1030F00030B1012807D0022809D003280FD10AE0F7
:10310000FA2008800EE04FF4FA7008800AE04FF4CD
:103110007A70088006E04FF4FA60088002E0002030
:10312000088000BF00BF0020704701469148407AE8
:1031300030B1012807D0022808D003280CD108E0BC
:10314000022008700BE00420087008E008200870D6
:1031500005E01020087002E04FF0FF30704700BF1C
:103160008448C07C18B108784006000E0870002022
:10317000F4E701467F48C07A082817D2DFE800F05C
:103180001704070A0D101318BC20088013E06220F2
:10319000088010E02A2008800DE0142008800AE052
:1031A0000A20088007E00520088004E000BF00BF77
:1031B0000020088000BF00BF0020704701466D4816
:1031C00090F8240010B14FF0FF3070476948C08973
:1031D00008800020F9E7014600200880401E704763
:1031E00001464FF0FF30704701466248007A30B127
:1031F000012809D002280CD0032814D10EE09FED3D
:103200005E0A81ED000A11E09FED5C0A81ED000A83
:103210000CE09FED5B0A81ED000A07E09FED590A83
:1032200081ED000A02E04FF0FF30704700BF002040
:10323000FBE701464F48407A30B1012808D0022808
:103240000AD0032810D10BE04FF4804008800EE034
:1032500041F69C7008800AE04FF48050088006E038
:103260004FF40060088002E04FF0FF30704700BF6D
:103270004048C07C10B10888401008800020F5E765
:1032800001463C48007C08700020704701463948E0
:10329000807A10B10120087001E000200870002041
:1032A000704738B504463348807A10B94FF0FF3084
:1032B00038BD304A1268117C2E4A526810786B462D
:1032C0000222FEF739FF10B14FF0FF30F0E79DF812
:1032D00001009DF8001040EA012000B2208000208B
:1032E000E6E72DE9FE4F0746884692461D46DDF883
:1032F00030B0002600241F4890F8240010B1601E52
:10330000BDE8FE8F002028701A48807A10B94FF06F
:10331000FF30F5E71748007C10B94FF0FF30EFE7BA
:103320001448007C00F0400008B1B01CC6B211483F
:10333000007C00F0200008B1B01CC6B20D48007C33
:1033400000F0100008B1B01CC6B20A48007C00F0C2
:10335000080008B1B01DC6B2064A1268917A054A43
:10336000526810786B460222FEF7E6FE60B14FF01D
:10337000FF30C5E744000020000003430000834203
:1033800033330342333383419DF801009DF800102D
:1033900040EA0129B14501DA0020B1E7FA48406866
:1033A0004088B9EB600F17DDF74A1268517CF64A86
:1033B000526810786B460122FEF7BEFE10B14FF046
:1033C000FF309DE79DF8000000F0100020B1FFF7EE
:1033D0007DF96FF0010093E75046FFF7E4FCEA4AFD
:1033E0001268D17AE84A526810786B463246FEF786
:1033F000A3FE10B14FF0FF3082E799FBF6F0401EBC
:103400008BF8000000202870B4422AD0DE48007CEF
:1034100000F0080028B3601C1DF800001DF804101F
:1034200040EA012000B2A8F80000E01C1DF80010DE
:10343000A01C1DF8000041EA002000B2A8F802001C
:10344000601D1DF80010201D1DF8000041EA00203D
:1034500000B2A8F80400287840F008002870A01DE9
:1034600084B2B44213D0C848007C00F0400070B170
:10347000601C1DF800001DF8041040EA012000B295
:103480003880287840F040002870A01C84B2B442F4
:1034900013D0BD48007C00F0200070B1601C1DF806
:1034A00000001DF8041040EA012000B2788028785E
:1034B00040F020002870A01C84B2B44213D0B2485F
:1034C000007C00F0100070B1601C1DF800001DF8B9
:1034D000041040EA012000B2B880287840F01000C3
:1034E0002870A01C84B200200AE7F8B504460F46F5
:1034F0001646A54890F8240010B94FF0FF30F8BDEB
:10350000A148807A10B94FF0FF30F8E79E4A126860
:10351000917A9D4A526810786B460222FEF70CFEA3
:1035200010B14FF0FF30EAE79DF801009DF8001060
:1035300040EA0125A54203DA00203070401EDEE794
:10354000914840684088B5EB600F17DD8E4A1268DD
:10355000517C8D4A526810786B460122FEF7ECFDD3
:1035600010B14FF0FF30CAE79DF8000000F01000E6
:1035700020B1FFF7ABF86FF00100C0E7E2B2824B79
:103580001B68D97A804B5B6818783B46FEF7D4FD00
:1035900010B14FF0FF30B2E795FBF4F0401E3070F1
:1035A0000020ACE70146784880F8221000207047E0
:1035B0007CB5054674494968087801AB04220D21A1
:1035C000FEF7BAFD08B107207CBD9DF80700C0F3E7
:1035D00001109DF8041001F0E00140EAE1008DF8CF
:1035E00000009DF80700C0F381009DF8051001F070
:1035F000E00140EAE1008DF801009DF8070000F0CD
:1036000003009DF8061001F0E00140EAE1008DF8AA
:103610000200002427E01DF8040030B99FED5B0A8A
:1036200005EB840080ED000A1BE09FED590A05EBD5
:10363000840080ED000A0BE005EB840090ED000AA9
:10364000DFED540A20EE200A05EB840080ED000A2D
:103650001DF80400401EC0B20DF804000028EBD194
:1036600000BF601CC4B2032CD5DB0020ACE7F0B572
:103670002DED028B83B006460F4600256846FFF706
:1036800097FF002447E056F8241057F82420881AA2
:10369000002801DB014600E0414200EE101AB8EEBE
:1036A000C00ADFED3D0A80EE208A684600EB840008
:1036B00090ED000AB5EEC00AF1EE10FA18D0684697
:1036C00000EB8400D0ED000A88EE200AF7EE000A35
:1036D00070EE608AB0EEE80A3048D0ED090AB4EE28
:1036E000E00AF1EE10FA15DD0120A040054311E0DB
:1036F0002A4890ED070AB4EEC80AF1EE10FA06DC8B
:1037000090ED080AB4EEC80AF1EE10FA02D20120D8
:10371000A0400543641C032CB5DB284603B0BDEC78
:10372000028BF0BDF0B52DED048B81B006460F463F
:1037300000251549496808786B4603220D21FEF7DC
:10374000FBFC20B1072001B0BDEC048BF0BD9DF85F
:10375000000000F01F008DF800009DF8010000F04F
:103760001F008DF801009DF8020000F01F008DF889
:103770000200002461E056F8241057F82420881A2B
:1037800000280DDB01460CE0440000200000000092
:103790007B14AE3E1D5A843F0000804744FA000867
:1037A000414200EE101AB8EEC00A5FED050A80EE45
:1037B000208A1DF8040068B3FE4890ED000AB8EEB8
:1037C000400ADFEDFD0A80EE801AF0EE418A05E046
:1037D0009FEDFA0A28EE800AF0EE408A1DF80400F8
:1037E000401EC0B20DF804000028F1D188EE280A6E
:1037F000F7EE000A30EE609AB0EEC90AED48D0ED5F
:10380000060AB4EEE00AF1EE10FA15DD0120A04040
:10381000054311E0E74890ED040AB4EEC80AF1EE62
:1038200010FA06DC90ED050AB4EEC80AF1EE10FAC3
:1038300002D20120A0400543641C032C9BDB2846D8
:1038400081E72DE9F04F87B005460C4691460120EF
:103850008DF8100000208DF81100D94A1268917C73
:10386000D74A5268107804AB0222FEF728FD20B137
:103870004FF0FF3007B0BDE8F08FC82001F0E4FD45
:1038800000208DF81000CE4A1268D17BCC4A5268D5
:10389000107804AB0122FEF712FD10B14FF0FF309B
:1038A000E8E7C74A12685179C54A5268107804ABF4
:1038B0000122FEF704FD10B14FF0FF30DAE7C04AF5
:1038C0001268917CBE4A5268107804AB0122FEF760
:1038D000F6FC10B14FF0FF30CCE7B94A1268D17D49
:1038E000B74A5268107804AB0122FEF7E8FC10B129
:1038F0004FF0FF30BEE7B24A12681179B04A526801
:10390000107804AB0122FEF7DAFC10B14FF0FF3063
:10391000B0E70C208DF81000A94A12681179A84A66
:103920005268107804AB0122FEF7C9FC10B14FF0C9
:10393000FF309FE70F2001F087FDA148806A407AA1
:103940008DF810009E4A126891789D4A526810784E
:1039500004AB0122FEF7B3FC10B14FF0FF3089E752
:103960009748806A007A8DF81000954A126851785D
:10397000934A5268107804AB0122FEF7A0FC10B104
:103980004FF0FF3076E7B9F1000F07D08C48806A1E
:10399000807A40F0E0008DF8100004E08848806AEA
:1039A000807A8DF81000864A12689179844A5268AC
:1039B000107804AB0122FEF782FC10B14FF0FF300B
:1039C00058E7B9F1000F07D07D48806AC07A40F00F
:1039D000E0008DF8100003E07648C07A8DF8100002
:1039E000774A1268D179764A5268107804AB01227E
:1039F000FEF765FC10B14FF0FF303BE7B9F1000F67
:103A000002D0C82001F020FD40208DF810006C4A43
:103A1000126811796A4A5268107804AB0122FEF7E5
:103A20004EFC10B14FF0FF3024E778208DF81000E5
:103A3000634A12685179624A5268107804AB0122D5
:103A4000FEF73DFC10B14FF0FF3013E7594988896C
:103A500001F0FAFC00208DF81000594A12685179E3
:103A6000574A5268107804AB0122FEF728FC10B1C7
:103A70004FF0FF30FEE6524A1268917A504A52687F
:103A8000107804AB0222FEF757FB10B14FF0FF3065
:103A9000F0E69DF811009DF8101040EA012B0C2073
:103AA0009BFBF0F0C6B20020A86068602860A060B0
:103AB00060602060824665E0414A1268D17A404ADF
:103AC0005268107804AB0C22FEF736FB10B14FF0B1
:103AD000FF30CFE69DF811009DF8101040EA01205C
:103AE00000B2ADF808009DF813009DF8121040EAEE
:103AF000012000B2ADF80A009DF815009DF81410E1
:103B000040EA012000B2ADF80C00BDF908102068B1
:103B100008442060BDF90A10606808446060BDF97F
:103B20000C10A0680844A0609DF817009DF81610BE
:103B300040EA012000B2ADF800009DF819009DF8A0
:103B4000181040EA012000B2ADF802009DF81B00F9
:103B50009DF81A1040EA012000B2ADF80400BDF94A
:103B60000010286808442860BDF9021068680844FD
:103B70006860BDF90410A8680844A8600AF1010053
:103B800000F0FF0AB24597DB0A48D0F800C0286869
:103B9000C117090441EA1041070462460023384670
:103BA00007F0DFFC32460023CDE9020107F0D9FC23
:103BB000286007E044FA000800B04C4554E3853F14
:103BC00044000020F848D0F800C06868C117090414
:103BD00041EA1041070462460023384607F0C1FC61
:103BE00032460023CDE9020107F0BBFC6860EE48D5
:103BF000D0F800C0A868C117090441EA10410704C1
:103C000062460023384607F0ACFC32460023CDE97B
:103C1000020107F0A6FCA860E348D0F804C02168C0
:103C2000C817000440EA11480F04624600233846D2
:103C3000414607F096FC32460023CDE9020107F029
:103C400090FC2060D848D0F804C06068C11709040F
:103C500041EA1041070462460023384607F081FC20
:103C600032460023CDE9020107F07BFC6060CE48BC
:103C7000D0F804C0A068C117090441EA1041070444
:103C800062460023384607F06CFC32460023CDE93B
:103C9000020107F066FCA060A068002804DDA068AF
:103CA000A0F58030A06003E0A06800F58030A0603F
:103CB0000020DFE538B50446BC4890F82400A04257
:103CC00001D1002038BD24B3B84890F8250010B9C0
:103CD0004FF0FF30F6E70020FEF72CFB0020FEF748
:103CE00051FCB249C88CFEF7BEFE00200090AF49DF
:103CF000496808786B4601222321FEF7E0FA01218A
:103D0000AA4880F824100120FEF714FBFEF7DEFC21
:103D100013E00020FEF70EFBA448007C0090A349AE
:103D2000496808786B4601222321FEF7C8FA002172
:103D30009E4880F82410FEF7C9FC0020C2E72DE958
:103D4000F04F8DB083460F4602200C90974890F8B4
:103D5000240020B10020FFF7ADFF012600E000267F
:103D600003A8FFF7C2F905A8FFF7DFF901A8FFF7DD
:103D700000FA02A8FFF722FA8C4890F80AA004A8DB
:103D8000FFF77EFA002407E0002239465846FFF785
:103D900058FD00B902E0641C022CF5DB00BF022CC8
:103DA00001D1002528E0002407E0012206A909A886
:103DB000FFF747FD00B902E0641C022CF5DB00BFF1
:103DC000022C01D1002517E006A93846FFF74FFC69
:103DD00000F0FF0809A95846FFF7A4FC00F0FF090E
:103DE0000025B9F1000F01D145F00105B8F1000F30
:103DF00001D145F0020500BFFF206C490872FF2188
:103E00006A484172C1724FF6FF71C181FF21817210
:103E1000017401210173BDF80C00FEF7B2FE9DF89C
:103E20001400FEF76CFEBDF80400FEF770FDBDF84F
:103E30000800FEF718FE5046FEF73FFB9DF8100005
:103E4000FEF730FD16B10120FFF734FF28460DB014
:103E5000BDE8F08FF8B504460D46164616B94FF08A
:103E6000FF30F8BD5148807A10B94FF0FF30F8E7C5
:103E700020128DF80000E0B28DF801009DF80100DD
:103E800028444A4949684989884202DD4FF0FF3099
:103E9000E7E7464A1268117E444A526810786B463A
:103EA0000222FEF70CFA10B14FF0FF30D9E7EAB268
:103EB0003E4B1B68597D3D4B5B6818783346FEF7D7
:103EC000FEF910B14FF0FF30CBE70020C9E7F8B59D
:103ED00004460D46164616B94FF0FF30F8BD33487C
:103EE000807A10B94FF0FF30F8E720128DF800000B
:103EF000E0B28DF801009DF8010028442B49496883
:103F00004989884202DD4FF0FF30E7E7274A12680F
:103F1000117E264A526810786B460222FEF7CFF9CE
:103F200010B14FF0FF30D9E7EAB2204B1B68597D42
:103F30001E4B5B6818783346FEF7FEF810B14FF061
:103F4000FF30CBE70020C9E72DE9F04385B00546F7
:103F50000E4690469946154890F8250020B14FF03E
:103F6000FF3005B0BDE8F08316B94FF0FF30F8E739
:103F7000002428E0281B102801DD102000E0281B69
:103F800087B2321939462046FFF764FF10B14FF06F
:103F9000FF30E6E701AA39462046FFF798FF38B11F
:103FA0004FF0FF30DDE7000044FA00084400002035
:103FB00030193A4601A907F059FC10B16FF0010021
:103FC000CFE7E01984B2AC42D4DB4FEA28208DF869
:103FD000000008F0FF008DF80100F94A1268917E98
:103FE000F74A526810786B460222FEF768F910B162
:103FF0004FF0FF30B5E70121F14880F82510A0F817
:1040000026900020ADE70146ED4890F824000870A6
:10401000002070474FF0FF30704702464FF0FF30EE
:10402000704701464FF0FF307047F8B505460F4620
:104030001446002C70D0B5F5FF5F01DDFF2605E0CA
:10404000202D01DA012601E0C5F3471607B9012743
:10405000282C02DD4FF0FF30F8BDD948407D28BB49
:10406000D74890F8240038B10020FFF723FE012143
:10407000D34880F8201003E00021D14880F82010B8
:10408000CF481630FFF731F8CD481830FFF74DF81C
:10409000CB481A30FFF76DF8C9481C30FFF78EF88F
:1040A000C748817A81771F30FFF7EAF80020FEF7D2
:1040B00041F90020FEF76AFC00208DF80000C04A9C
:1040C00012689178BE4A526810786B460122FEF75A
:1040D000F6F810B14FF0FF30BEE740208DF8000039
:1040E000B74A1268D17BB64A526810786B460122F3
:1040F000FEF7E5F800B165E08DF800608DF801701D
:10410000AF4A1268117AAE4A526810786B460222A2
:10411000FEF7D5F808B155E047E0052001F094F925
:10412000A748407A072101EBC000C0B28DF800001B
:10413000A34A1268D179A24A526810786B460122CC
:10414000FEF7BDF800B13DE020208DF80000012C05
:1041500003D100208DF801000EE0052C03DC0120C6
:104160008DF8010008E0142C03DC02208DF801001A
:1041700002E003208DF801009DF80100072101EB0A
:104180008010C0B28DF801008D4A1268917C8C4A73
:10419000526810786B460222FEF791F800B111E0E8
:1041A000012187484175002056E7854A16320021D3
:1041B00003E0505C00B105E0491C0C29F9D34FF035
:1041C000FF3049E7FF207E490872FF217C48417299
:1041D000C1724FF6FF71C181FF218172017401210B
:1041E00001730146887FFEF768F97549C88AFEF7B2
:1041F000C8FC7349087EFEF782FC7149488BFEF7C4
:1042000086FB6F49888BFEF72EFC6D49C87FFEF751
:1042100049FB6B4890F8200010B10120FFF74AFDE0
:10422000002167484175002016E710B588B002A943
:1042300005A8FFF784FD0446032C41D101A8FEF731
:10424000D3FF9DED050AB8EEC00ADDED010A20EEB0
:10425000200ABDEEC00A8DED050A9DED060AB8EEF6
:10426000C00ADDED010A20EE200ABDEEC00A8DED88
:10427000060A9DED070AB8EEC00ADDED010A20EE40
:10428000200ABDEEC00A8DED070A05A800F04DFA20
:104290006846FEF7CEFFBDF8001002984843029032
:1042A000BDF80010039848430390BDF8001004982F
:1042B0004843049002A800F0CBFA002008B010BDDB
:1042C0000120FBE7014691F90020002A01DD0020D2
:1042D0001EE091F90020002A01DA042018E091F98B
:1042E0000120002A01DD012012E091F90120002ABD
:1042F00001DA05200CE091F90220002A01DD0220FC
:1043000006E091F90220002A01DA062000E00720E9
:10431000704710B504462046FFF7D4FF0346E01C63
:10432000FFF7D0FF43EAC00083B2A01DFFF7CAFF2A
:1043300043EA801083B2184610BD70B50024FDF723
:1043400007FDFEF760FC002845D17820FEF7B5F8A0
:10435000C4B20CB1012070BD7820FEF7A3FAC4B23C
:104360000CB10220F7E76420FEF77DFBC4B20CB16C
:104370000320F0E700F03EF9C4B20CB10420EAE7F4
:104380001048FFF7C6FF054600F03EF9C4B20CB175
:104390000520E0E740F2731000F087FDC4B20CB1D5
:1043A0000620D8E7642000F0E9FAC4B20CB1072077
:1043B000D1E7FFF73AFF044634B10820CBE700000D
:1043C00044000020700000200120FFF773FCC4B2FD
:1043D0000CB10920BFE70020BDE770B52DED0C8BB7
:1043E0008EB004460D461646B7EE000AF0EE409A2F
:1043F0009FED7C0AB0EE408A9FED7A0AF0EE408A8B
:104400009FED780AB0EE409A07A808A90DAB03AA61
:10441000CDE9001009A90BA800F0A6FE20B10120EB
:104420000EB0BDEC0C8B70BDBDF8200000F48070A8
:1044300000287CD09DED030AB8EEC00ADFED6A0AC1
:1044400080EE201AF0EE419A9DED040AB8EEC00A03
:10445000DFED650A80EE201AB0EE418A9DED050A77
:10446000B8EEC00ADFED600A80EE201AF0EE418A55
:104470009DED060AB8EEC00ADFED5B0A80EE201A59
:10448000B0EE419AB8EE000A28EE000A20EE090AC2
:10449000F0EE000A69EEA00A00EEA80A10EE101A6B
:1044A000084609F05DFE41EC1C0BB0EE4C0AF0EE44
:1044B0006C0A08F019FBB0EE40BAF0EE60BA9FED5E
:1044C0004B0B53EC102B51EC1B0B09F053FB41EC45
:1044D0001A0B09F04DF82060B8EE000A28EE000A29
:1044E00020EE080AF0EE000A68EEA00A00EEE80AE4
:1044F000F7EE000A30EE200A10EE101A084609F016
:104500002FFE41EC1C0BB0EE000A28EE800A20EED4
:10451000090AF0EE000A69EEA00A00EE880A10EE21
:10452000101A084609F01CFE41EC1D0B00E054E097
:10453000B0EE4C1AF0EE6C1AB0EE4D0AF0EE6D0AC9
:1045400008F0EEFDB0EE40BAF0EE60BA9FED270B3A
:1045500053EC102B51EC1B0B09F00CFB41EC1A0B2C
:1045600009F006F8286029EEA90A08EE080A08EE04
:10457000E80A09EE490A10EE101A084609F0F0FDA3
:1045800041EC1C0B28EE280A09EE890AF0EE000A1D
:1045900020EE200A10EE101A084609F0E1FD41EC69
:1045A0001D0BB0EE4C1AF0EE6C1AB0EE4D0AF0EEA8
:1045B0006D0A08F0B5FDB0EE40BAF0EE60BA9FEDBE
:1045C0000B0B53EC102B51EC1B0B09F0D3FA41EC05
:1045D0001A0B08F0CDFF306001E0022020E7002038
:1045E0001EE70000000000000000804E6666666660
:1045F00066A64C4010B5C8234FF48062F74940F6D8
:10460000F630FFF7A1FC10BD10B586B00446F4A04B
:1046100000680390F3A000680290F3A00068019086
:10462000F2A00068009004F0030003A9085C8DF874
:10463000140003A8C4F3C101405C8DF8150003A861
:10464000C4F38111405C8DF8160004F0030002A948
:10465000085C8DF8100002A8C4F3C101405C8DF81D
:10466000110002A8C4F38111405C8DF8120005AA64
:10467000032140F22640FFF7EDFB18B14FF0FF3069
:1046800006B010BD04AA032140F22A40FFF7E2FB66
:1046900010B14FF0FF30F3E70198059000980490B7
:1046A00004F0040058B19DF8140040F001008DF8AA
:1046B00014009DF8100040F001008DF8100004F087
:1046C000200058B19DF8150040F001008DF815004C
:1046D0009DF8110040F001008DF8110004F4807085
:1046E00058B19DF8160040F001008DF816009DF8B5
:1046F000120040F001008DF8120005AA03214FF4CA
:104700008860FFF7A7FB10B14FF0FF30B8E704AAAD
:10471000032140F23140FFF79DFB10B14FF0FF3015
:10472000AEE7B34804810020AAE71FB50446B048AD
:10473000007A00F0030054F820000190AC48007AA1
:1047400000F0040010B1019840420190A848007A9E
:10475000C0F3C10054F820000290A548007A00F090
:10476000200010B1029840420290A148007AC0F3A4
:10477000811054F8200003909D48008900F4807057
:1047800010B10398404203909A49019880FB0101BF
:10479000800F40EA810001909649029880FB011049
:1047A000820042EA917002909249039880FB0110C6
:1047B000820042EA917003900198000E8DF800008B
:1047C0000198000C8DF801000198000A8DF8020094
:1047D0000198C0B28DF803006A4604214FF474704A
:1047E000FFF738FB18B14FF0FF3004B010BD02984E
:1047F000000E8DF800000298000C8DF80100029860
:10480000000A8DF802000298C0B28DF803006A46D3
:1048100004214FF47570FFF71DFB10B14FF0FF300E
:10482000E3E70398000E8DF800000398000C8DF864
:1048300001000398000A8DF802000398C0B28DF8B9
:1048400003006A4604214FF47670FFF703FBCCE7C0
:1048500070B588B0064601A8FEF7EBFCBDF8040071
:104860000021C90341EA5045C4036148007A00F0C1
:10487000030056F8200005905D48007A00F004001F
:1048800010B10598404205905948007AC0F3C10024
:1048900056F8200006905648007A00F0200010B12B
:1048A0000698404206905248007AC0F3811056F8AC
:1048B000200007904E48008900F4807010B10798DE
:1048C000404207900598C117A0FB042301FB043167
:1048D00000FB0510810041EA927005900698C1170F
:1048E000A0FB042301FB043100FB0510810041EA19
:1048F000927006900798C117A0FB042301FB0431B6
:1049000000FB0510810041EA927007900598000EA7
:104910008DF808000598000C8DF809000598000A2C
:104920008DF80A000598C0B28DF80B000698000EAD
:104930008DF80C000698000C8DF80D000698000A02
:104940008DF80E000698C0B28DF80F000798000E83
:104950008DF810000798000C8DF811000798000AD8
:104960008DF812000798C0B28DF8130002AA0C212E
:104970004FF42570FFF76EFA08B070BD30B585B002
:1049800004461DA207CA02AB07C3C82C03DD4FF0C3
:10499000FF3005B030BDC82090FBF4F0401E85B25A
:1049A000280A8DF80000E8B28DF801006A4602215D
:1049B00040F21620FFF74EFA10B14FF0FF30E8E753
:1049C00002AA0C2140F6C120FFF744FA10B14FF0C3
:1049D000FF30DEE7064884810020DAE76CFA000841
:1049E0004CCD6C000CC92C0036567600264666006D
:1049F0008C07002009E3CA02FEF2ABC4AAF1DFDF94
:104A0000BBAFDFDF0146F94880890880002070478E
:104A1000F0B52DED028B83B006460F4606F0070079
:104A200010B1B7F5C86F05DD4FF0FF3003B0BDEC36
:104A3000028BF0BD00EE107AB8EE400ADFEDEC0A12
:104A400080EE208A01A8FEF770FB9DF80400022882
:104A500006D0042817D0082828D010284CD138E0D8
:104A60009FEDE40A28EE000ABCEEC00A10EE100A20
:104A700084B29FEDE10A28EE000ABCEEC00A10EEF7
:104A8000100A85B23BE09FEDDD0A28EE000ABCEE7D
:104A9000C00A10EE100A84B29FEDD90A28EE000A6F
:104AA000BCEEC00A10EE100A85B228E09FEDD50AD0
:104AB00028EE000ABCEEC00A10EE100A84B29FED88
:104AC000D20A28EE000ABCEEC00A10EE100A85B227
:104AD00015E09FEDCE0A28EE000ABCEEC00A10EEEB
:104AE000100A84B29FEDCA0A28EE000ABCEEC00A82
:104AF00010EE100A85B202E04FF0FF3096E700BFDB
:104B000020128DF80800E0B28DF8090028128DF807
:104B10000A00E8B28DF80B0006F00100A0B102AA6D
:104B200002214FF4EA70FFF795F910B14FF0FF3012
:104B30007CE70DF10A0202214FF49270FFF78AF927
:104B400010B14FF0FF3071E706F00200A0B102AAE9
:104B500002214FF4EC70FFF77DF910B14FF0FF30F8
:104B600064E70DF10A0202214FF49470FFF772F925
:104B700010B14FF0FF3059E706F00400A0B102AACF
:104B800002214FF4EE70FFF765F910B14FF0FF30DE
:104B90004CE70DF10A0202214FF49670FFF75AF923
:104BA00010B14FF0FF3041E700203FE738B5044631
:104BB0000020009004F0010020B19DF8000040F0BA
:104BC0003000009004F0020020B19DF8000040F099
:104BD0000C00009004F0040020B19DF8000040F0AB
:104BE000030000906A4601214FF4A470FFF732F9E8
:104BF00038BD38B50446012C01DA012402E0042C4A
:104C000000DD0424601EC0B200906A46012140F21B
:104C10004F10FFF71FF938BD38B50446052094FB47
:104C2000F0F085B228128DF80000E8B28DF801008E
:104C30006A4602214FF4EF70FFF70CF938BD38B522
:104C40000446052094FBF0F085B228128DF8000090
:104C5000E8B28DF801006A4602214FF4ED70FFF7CB
:104C6000F9F838BDF8B505460E464FF47A7095FB55
:104C7000F0F000FB06F4200E8DF80000200C8DF8FB
:104C80000100200A8DF80200E0B28DF803006A46A8
:104C900004214FF4AE70FFF7DDF8F8BD38B50446D7
:104CA000052094FBF0F084B220128DF80000E0B2F1
:104CB0008DF801006A4602214FF4AD70FFF7CAF883
:104CC00038BD38B50446052094FBF0F084B22012BC
:104CD0008DF80000E0B28DF801006A4602214FF421
:104CE000AC70FFF7B7F838BD38B5044614B94FF0CB
:104CF000FF3038BD6A4604214FF45870FFF7E7F8DB
:104D000010B14FF0FF30F4E79DF8000000069DF869
:104D1000011040EA01409DF8021040EA01209DF890
:104D20000310084320600020E3E738B50446200E56
:104D30008DF80000200C8DF80100200A8DF802008B
:104D4000E0B28DF803006A4604214FF45870FFF773
:104D500081F838BD38B5044614B94FF0FF3038BD7E
:104D60006A4604214FF47170FFF7B1F810B14FF0AB
:104D7000FF30F4E79DF8000000069DF8011040EABE
:104D800001409DF8021040EA01209DF803100843FD
:104D900000EB8000800020600020E0E738B504468A
:104DA0001420B4FBF0F4200E8DF80000200C8DF8D8
:104DB0000100200A8DF80200E0B28DF803006A4677
:104DC00004214FF47170FFF745F838BD38B504463B
:104DD00004B320208DF8000028208DF80100302039
:104DE0008DF8020038208DF8030018E08C070020B1
:104DF0000000484300008046000040460000004696
:104E00000000C0450000804500004045000000450E
:104E10000000C044A3220421684606F085FD6A46CE
:104E2000042140F69E20FFF715F8FDF74FFC38BD32
:104E300038B5044664B1C0208DF80000C2208DF85A
:104E40000100C4208DF80200C6208DF8030004E0A4
:104E50008B220421684606F067FD6A46042140F66D
:104E60009820FEF7F7FFFDF731FC38BD3EB504464C
:104E70006CB1FDA1D1E900208968CDE90020029143
:104E80006A4609214FF49760FEF7E4FF3EBDF9A2A0
:104E9000D2E900109268CDE9010200916A46092129
:104EA0004FF49760FEF7D6FFF0E73EB504460220C8
:104EB0008DF80000CA208DF80100E3208DF8020073
:104EC00009208DF803006A4604216820FEF7C2FF1E
:104ED000A3208DF8000004F0400048B1C0208DF8F8
:104EE0000100C8208DF80200C2208DF8030006E002
:104EF000A3208DF801008DF802008DF8030004F462
:104F0000C07048B1C4208DF80400CC208DF8050095
:104F1000C6208DF8060006E0A3208DF804008DF869
:104F200005008DF80600A3208DF807008DF8080015
:104F30008DF809006A460A2140F6A720FEF78AFF8D
:104F400004F0030018B120208DF8000002E0D82002
:104F50008DF800006A46012140F6B620FEF77AFF80
:104F600004F0200018B10120FFF780FF02E00020CC
:104F7000FFF77CFF04F4C07008B304F4807060B1E4
:104F8000B2208DF800008B208DF80100B6208DF83E
:104F900002009B208DF803000BE0B0208DF800008C
:104FA00080208DF80100B4208DF8020090208DF84B
:104FB00003006A46042140F6A220FEF74BFF04F0EE
:104FC000010020B3F8208DF800006A4601214FF45B
:104FD0000B60FEF73FFFFA210720FFF719FD0720BE
:104FE000FFF7E4FD0120FFF704FE6420FFF714FE45
:104FF0004FF4FA70FFF723FEC821A148FFF732FEF5
:105000002820FFF74BFE0A20FFF75BFE08E0D820C0
:105010008DF800006A4601214FF40B60FEF71AFF7D
:1050200004F0020018B1D9208DF8000002E0D82069
:105030008DF800006A46012140F23D70FEF70AFF3C
:1050400004F0040018B10120FFF7F2FE02E0002096
:10505000FFF7EEFE04F0100018B10120FFF7B6FED6
:1050600002E00020FFF7B2FE44F0080085494881C5
:10507000FDF72CFB00208349887304F0400018B131
:105080000846807B801D887304F4C07020B17D4881
:10509000807B801D7B49887304F0140020B179481F
:1050A000807B10307749887304F0030020B1754885
:1050B000807B001D7349887300203EBD0146714806
:1050C00040890880002070472DE9F0410446E078CF
:1050D00000F0C006E07800F03F05607800F00100C5
:1050E00098B1EF102846E91705EB5171C910A5EBEF
:1050F000C101491C01F0FF086248006820B1614805
:10510000414602683846904700BF607800F00800CA
:1051100030B15C48406818B1B0115A4A51688847AC
:105120000020BDE8F08110B586B0044656A207CA3B
:1051300003AB07C357A207CA8DE80700012C09D0AB
:10514000022C0ED103AA0B2140F68220FEF782FE2C
:1051500006B010BD6A460B2140F68220FEF77AFEAB
:10516000F6E74FF0FF30F3E72DE9F04F8DB007463B
:10517000884615469946DDE9166B002400203080EC
:105180004049887B5A4605A9FEF7AFF918B1601E61
:105190000DB0BDE8F08F3B48807A00F01400002885
:1051A00061D09DF8140000069DF8151040EA0140FA
:1051B0009DF8161040EA01209DF81710084328605A
:1051C0009DF8180000069DF8191040EA01409DF86E
:1051D0001A1040EA01209DF81B10084368609DF8F2
:1051E0001C0000069DF81D1040EA01409DF81E10AD
:1051F00040EA01209DF81F100843A8609DF8200098
:1052000000069DF8211040EA01409DF8221040EA76
:1052100001209DF823100843E86004F11000C4B297
:10522000286800140190686800140290A8680014AF
:105230000390E8680014049001984043029901FB30
:105240000100039901FB0100049901FB010ABAF175
:10525000706F02DBBAF1885F22DDFDF737FA0020BC
:105260003080401E94E721E0B8AAB38DB4980D3584
:105270005D000000B8AAAAAAB088C3C5C700000094
:1052800009E3CA028C070020D8B1B9F38BA391B609
:1052900009B4D900DAB1B9F38BA391B6DAB4DA0064
:1052A000B6F9000040F48070308000BF3448807A46
:1052B00000F0400020B305A9601C085C095D40EACD
:1052C000012000B2A8F8000005A9E01C095C05AAAD
:1052D000A01C105C41EA002000B2A8F8020005A959
:1052E000601D095C201D105C41EA002000B2A8F896
:1052F0000400A01DC4B2B6F9000040F008003080E0
:105300001F48408900F4C07008B305A9601C085C00
:10531000095D40EA012000B2388005A9E01C095C63
:1053200005AAA01C105C41EA002000B2788005A903
:10533000601D095C201D105C41EA002000B2B880AD
:10534000A01DC4B2B6F9000040F0700030800C48D7
:10535000807A00F0030018B105A90819FFF7B4FE20
:105360004846FDF720FD002012E701460448016091
:10537000002070470146024841600020704700004D
:105380008C07002010B504466FF0040000F06CF9A3
:10539000E11704EB5171C1F3C701394A117010468E
:1053A000007800EB4001C1EBC0104FF6FF7101EA3D
:1053B000C0003449088010BD0146314A12784A4382
:1053C0004FF0E0235A6100229A611A46126942F0B6
:1053D00001021A6100BF4FF0E022106900F00102E3
:1053E0001AB100F48032002AF5D04FF0E0221269A1
:1053F00022F001024FF0E0231A6100229A61704707
:105400000146204A12884A434FF0E0235A610022A5
:105410009A611A46126942F001021A6100BF4FF008
:10542000E022106900F001021AB100F48032002A73
:10543000F5D04FF0E022126922F001024FF0E02394
:105440001A6100229A61704770B504464FF40770E4
:1054500094FBF0F0C6B24FF4077094FBF0F100FB40
:10546000114085B205E04FF40770FFF7C9FF701EC9
:10547000C6B2002EF7D115B12846FFF7C1FF70BDA7
:105480007A0000207C000020014600BF704700BF6A
:10549000354A128802F04002002AF9D0C2B2324BDB
:1054A0009A80704710B588B004460121084601F083
:1054B00023F80121102001F079F8072209212B4857
:1054C00000F007FE07220A21284800F002FE4FF4F0
:1054D000C060069002208DF81C008DF81D00002091
:1054E0008DF81E0001208DF81F0006A91F4800F04E
:1054F00065FD02940020ADF80C00ADF80E00ADF88B
:105500001000ADF814000C20ADF8120002A91648E6
:1055100001F0FFFF0121144802F083F8012240F25C
:105520002551114802F033F925208DF8040003209D
:105530008DF8050001208DF806008DF8070001A800
:1055400000F045F808B010BD10B540F225510648EE
:1055500002F058F938B1044802F092F8C4B221467A
:1055600003A006F023F810BD001001400000024027
:10557000B4AEBFDA31D6D0B6CFBBD8CFD4A3BA251C
:10558000630D0A000948804709480047FEE7FEE727
:10559000FEE7FEE7FEE7FEE7FEE7FEE7FEE7FEE7E3
:1055A00004480549054A064B704700008903000876
:1055B00089010008D8090020D80F0020D80B00204E
:1055C000D80B002032490143324A1160704770B550
:1055D000002100230F22C4781CB32E4C246804F44D
:1055E000E064C4F5E064C4F30721C1F10404E3B24C
:1055F0000A4144789C40E1B28478144021430C076E
:10560000210E254C05786155047804F01F0501240E
:10561000AC4005786D11AD0005F1E025C5F80041FD
:1056200009E0047804F01F050124AC401B4D067806
:10563000761145F8264070BD194A0A400243154BC1
:105640001B1F1A60704739B1124A121D12680243BB
:10565000104B1B1D1A6006E00E4A121D1268824391
:105660000C4B1B1D1A607047042808D14FF0E02135
:10567000096941F004014FF0E022116107E04FF0A9
:10568000E021096921F004014FF0E0221161704727
:105690000000FA050CED00E000E400E080E100E02D
:1056A00080FFFF1F10B50121080200F0D4FF002188
:1056B0004FF4807000F0CFFF10BD30B502460020DF
:1056C00000235068F84C20400D790C6844EA05240A
:1056D000204350609068F54C2040D1E903542C439E
:1056E0008D682C434D7944EA450420439060D06A8C
:1056F00020F470000C7D641EE4B2234340EA0350A2
:10570000D06230BD00210160017141718160C160D2
:1057100001610121017570470021E54A1168E54AE0
:105720001140D0E900231A4383681A43C3681A431F
:105730001143E14AC2F8041370470021016041603F
:105740008160C160704721B1826842F001028260CD
:1057500003E0826822F00102826070470A4600215D
:105760004168D64B194011434160704741628262E3
:1057700070470A460021416821F01F011143416032
:10578000704738B1CA49096841F40001CA4AC2F8F1
:10579000041306E0C649096821F40001C64AC2F8AC
:1057A0000413704738B1C249096841F48001C24A04
:1057B000C2F8041306E0BE49096821F48001BE4A1C
:1057C000C2F804137047F0B504460D4600200021CE
:1057D000092D11DDE068A5F10A0606EB460707264C
:1057E00006FA07F18843A5F10A0606EB460603FA16
:1057F00006F10843E0600CE0206905EB4507072649
:1058000006FA07F1884305EB450603FA06F108435B
:105810002061072A0FDA606B561E06EB86071F26EB
:1058200006FA07F18843561E06EB860605FA06F1CE
:105830000843606322E00D2A0FDA206BD61F06EBC7
:1058400086071F2606FA07F18843D61F06EB860651
:1058500005FA06F10843206310E0E06AA2F10D06A4
:1058600006EB86071F2606FA07F18843A2F10D060C
:1058700006EB860605FA06F10843E062F0BD816892
:1058800041F0804181607047014600208A6802F043
:1058900080420AB1012000E00020704721B18268F7
:1058A00042F48062826003E0826822F48062826057
:1058B000704721B1826842F00202826003E0826890
:1058C00022F002028260704710B50A4600210023D0
:1058D000416821F46041531E41EA4331416010BDEB
:1058E00021B1426842F40062426003E0426822F45F
:1058F0000062426070470146C86C80B270476C48D5
:10590000001D0068704721B1826842F48072826095
:1059100003E0826822F480728260704721B182685D
:1059200042F40072826003E0826822F400728260B6
:10593000704738B15E49096841F400515E4AC2F8C7
:10594000041306E05A49096821F400515A4AC2F882
:1059500004137047F0B504461546002000220026C7
:10596000092911DDE068A1F10A0707EB470C0727B9
:1059700007FA0CF29043A1F10A0707EB470703FA75
:1059800007F21043E0600CE0206901EB410C0727AF
:1059900007FA0CF2904301EB410703FA07F21043B8
:1059A0002061A06BC0F30156EF1C06F1010CA7EBC0
:1059B0000C0707EB870C1F2707FA0CF29043EF1C2C
:1059C00006F1010CA7EB0C0707EB870701FA07F2BA
:1059D0001043A063F0BD10B50A4600210023816B7F
:1059E00021F44011531E41EA0351816310BD08B5F3
:1059F000002300930090009B0B440093009B1A60CF
:105A000008BD0A460021816821F47021114381609C
:105A100070470A460021816821F4401111438160DA
:105A20007047816841F48001816070470146002021
:105A30008A6802F480020AB1012000E00020704769
:105A400021B1426842F48062426003E0426822F47D
:105A500080624260704721B1426842F480524260E5
:105A600003E0426822F480524260704708B5024663
:105A700000200090009201F12800009B1844009043
:105A80000098006880B208BD10B50B460021D9B25D
:105A9000012404FA01F11AB144680C43446002E0A5
:105AA00044688C43446010BDFFFEFFFCFDF7FFC05F
:105AB00004230140E030FCFF00200140FFFD3FFFD8
:105AC0000246002013680B400BB1012000E00020CB
:105AD0007047CA430260704770B502460020002339
